{
  "transactions": [
    {
      "hash": "0x0b177f622cd322d16e2782de9b61263cfc01115c22b1ec0fb0b1699aa4dd901d",
      "transactionType": "CALL",
      "contractName": null,
      "contractAddress": "0x2369dff13b5f2778fe90e5cde5d40ccf7b72135e",
      "function": "mint(uint256,uint256)",
      "arguments": [
        "1",
        "3"
      ],
      "transaction": {
        "from": "0xb06a64615842cba9b3bdb7e6f726f3a5bd20dac2",
        "to": "0x2369dff13b5f2778fe90e5cde5d40ccf7b72135e",
        "gas": "0xfedd",
        "value": "0x0",
        "input": "0x1b2ef1ca00000000000000000000000000000000000000000000000000000000000000010000000000000000000000000000000000000000000000000000000000000003",
        "nonce": "0x16f",
        "chainId": "0xaa36a7"
      },
      "additionalContracts": [],
      "isFixedGasLimit": false
    },
    {
      "hash": "0xa2acbb7104aea2466d880babbd162375795c21ae643d551abbbbb8581aaad392",
      "transactionType": "CALL",
      "contractName": null,
      "contractAddress": "0x2369dff13b5f2778fe90e5cde5d40ccf7b72135e",
      "function": "setApprovalForAll(address,bool)",
      "arguments": [
        "0x329d63f8850fA73E9D74443f091A8E2458521245",
        "true"
      ],
      "transaction": {
        "from": "0xb06a64615842cba9b3bdb7e6f726f3a5bd20dac2",
        "to": "0x2369dff13b5f2778fe90e5cde5d40ccf7b72135e",
        "gas": "0xf943",
        "value": "0x0",
        "input": "0xa22cb465000000000000000000000000329d63f8850fa73e9d74443f091a8e24585212450000000000000000000000000000000000000000000000000000000000000001",
        "nonce": "0x170",
        "chainId": "0xaa36a7"
      },
      "additionalContracts": [],
      "isFixedGasLimit": false
    },
    {
      "hash": "0x93f53b8feef0a56e18a166c49bc2fb95ff459c1d6f498895f76062356bc3d052",
      "transactionType": "CALL",
      "contractName": null,
      "contractAddress": "0x329d63f8850fa73e9d74443f091a8e2458521245",
      "function": "crossTheThreshold1155((address[],uint256[][],uint256[][],address,uint64))",
      "arguments": [
        "([0x2369dff13b5F2778Fe90e5cdE5d40CCF7b72135e], [[1]], [[3]], 0xb06a64615842CbA9b3Bdb7e6F726F3a5BD20daC2, 2000000)"
      ],
      "transaction": {
        "from": "0xb06a64615842cba9b3bdb7e6f726f3a5bd20dac2",
        "to": "0x329d63f8850fa73e9d74443f091a8e2458521245",
        "gas": "0x2c8aba",
        "value": "0x0",
        "input": "0x09d1d09f000000000000000000000000000000000000000000000000000000000000002000000000000000000000000000000000000000000000000000000000000000a000000000000000000000000000000000000000000000000000000000000000e00000000000000000000000000000000000000000000000000000000000000160000000000000000000000000b06a64615842cba9b3bdb7e6f726f3a5bd20dac200000000000000000000000000000000000000000000000000000000001e848000000000000000000000000000000000000000000000000000000000000000010000000000000000000000002369dff13b5f2778fe90e5cde5d40ccf7b72135e00000000000000000000000000000000000000000000000000000000000000010000000000000000000000000000000000000000000000000000000000000020000000000000000000000000000000000000000000000000000000000000000100000000000000000000000000000000000000000000000000000000000000010000000000000000000000000000000000000000000000000000000000000001000000000000000000000000000000000000000000000000000000000000002000000000000000000000000000000000000000000000000000000000000000010000000000000000000000000000000000000000000000000000000000000003",
        "nonce": "0x171",
        "chainId": "0xaa36a7"
      },
      "additionalContracts": [],
      "isFixedGasLimit": false
    },
    {
      "hash": "0x56a6987e3eef450d8248f6ba76ba6ab5a73a80cf7885abc635654e472704b990",
      "transactionType": "CALL",
      "contractName": null,
      "contractAddress": "0x2369dff13b5f2778fe90e5cde5d40ccf7b72135e",
      "function": "setApprovalForAll(address,bool)",
      "arguments": [
        "0x329d63f8850fA73E9D74443f091A8E2458521245",
        "false"
      ],
      "transaction": {
        "from": "0xb06a64615842cba9b3bdb7e6f726f3a5bd20dac2",
        "to": "0x2369dff13b5f2778fe90e5cde5d40ccf7b72135e",
        "gas": "0x8309",
        "value": "0x0",
        "input": "0xa22cb465000000000000000000000000329d63f8850fa73e9d74443f091a8e24585212450000000000000000000000000000000000000000000000000000000000000000",
        "nonce": "0x172",
        "chainId": "0xaa36a7"
      },
      "additionalContracts": [],
      "isFixedGasLimit": false
    }
  ],
  "receipts": [
    {
      "status": "0x1",
      "cumulativeGasUsed": "0x10c9601",
      "logs": [
        {
          "address": "0x2369dff13b5f2778fe90e5cde5d40ccf7b72135e",
          "topics": [
            "0xc3d58168c5ae7397731d063d5bbf3d657854427343f4c083240f7aacaa2d0f62",
            "0x000000000000000000000000b06a64615842cba9b3bdb7e6f726f3a5bd20dac2",
            "0x0000000000000000000000000000000000000000000000000000000000000000",
            "0x000000000000000000000000b06a64615842cba9b3bdb7e6f726f3a5bd20dac2"
          ],
          "data": "0x00000000000000000000000000000000000000000000000000000000000000010000000000000000000000000000000000000000000000000000000000000003",
          "blockHash": "0x28b934e04e8b88090ab3ffa8489add04ff4152cc407d84fa4be2c7f909ba343e",
          "blockNumber": "0x652d25",
          "transactionHash": "0x0b177f622cd322d16e2782de9b61263cfc01115c22b1ec0fb0b1699aa4dd901d",
          "transactionIndex": "0x46",
          "logIndex": "0x5e",
          "removed": false
        }
      ],
      "logsBloom": "0x00000000000000000000000000000000000000000000000000000000000000000000000000200000000000000000000000000000000000000000000040002000000000000000000000000000000000000000000000000000000000000000000000000000020000000000000000000800000000000000000000400000000000000000000000000100000000000000000000000000000000000000000000000000000000000000100000000000000000000000000000000000000000000000000000000000000000000000000000000000000000000008100000000000000020000000000000000000000000000000000000000000000000000000080000000000",
      "type": "0x2",
      "transactionHash": "0x0b177f622cd322d16e2782de9b61263cfc01115c22b1ec0fb0b1699aa4dd901d",
      "transactionIndex": "0x46",
      "blockHash": "0x28b934e04e8b88090ab3ffa8489add04ff4152cc407d84fa4be2c7f909ba343e",
      "blockNumber": "0x652d25",
      "gasUsed": "0xb885",
      "effectiveGasPrice": "0xff06dc306",
      "from": "0xb06a64615842cba9b3bdb7e6f726f3a5bd20dac2",
      "to": "0x2369dff13b5f2778fe90e5cde5d40ccf7b72135e",
      "contractAddress": null
    },
    {
      "status": "0x1",
      "cumulativeGasUsed": "0x10d4a78",
      "logs": [
        {
          "address": "0x2369dff13b5f2778fe90e5cde5d40ccf7b72135e",
          "topics": [
            "0x17307eab39ab6107e8899845ad3d59bd9653f200f220920489ca2b5937696c31",
            "0x000000000000000000000000b06a64615842cba9b3bdb7e6f726f3a5bd20dac2",
            "0x000000000000000000000000329d63f8850fa73e9d74443f091a8e2458521245"
          ],
          "data": "0x0000000000000000000000000000000000000000000000000000000000000001",
          "blockHash": "0x28b934e04e8b88090ab3ffa8489add04ff4152cc407d84fa4be2c7f909ba343e",
          "blockNumber": "0x652d25",
          "transactionHash": "0xa2acbb7104aea2466d880babbd162375795c21ae643d551abbbbb8581aaad392",
          "transactionIndex": "0x47",
          "logIndex": "0x5f",
          "removed": false
        }
      ],
      "logsBloom": "0x00000000000000000000000000000000000000000000000000000000000000000000000000200000000000000000000000000000000000000000000040000000000000000000000000000000000000000000000000000000000000000000000002000001000000000000000800000000000000000000000000400000000000000000000000000100000000000000000000000000000000000000000800000000000000000000100000000000000000000000000000000000000000000000000000000000000000000000000000000000000000000000100000000000000000000000200800000000000000000000000000000000000000000000000000000000",
      "type": "0x2",
      "transactionHash": "0xa2acbb7104aea2466d880babbd162375795c21ae643d551abbbbb8581aaad392",
      "transactionIndex": "0x47",
      "blockHash": "0x28b934e04e8b88090ab3ffa8489add04ff4152cc407d84fa4be2c7f909ba343e",
      "blockNumber": "0x652d25",
      "gasUsed": "0xb477",
      "effectiveGasPrice": "0xff06dc306",
      "from": "0xb06a64615842cba9b3bdb7e6f726f3a5bd20dac2",
      "to": "0x2369dff13b5f2778fe90e5cde5d40ccf7b72135e",
      "contractAddress": null
    },
    {
      "status": "0x1",
      "cumulativeGasUsed": "0x10f9af0",
      "logs": [
        {
          "address": "0x2369dff13b5f2778fe90e5cde5d40ccf7b72135e",
          "topics": [
            "0xc3d58168c5ae7397731d063d5bbf3d657854427343f4c083240f7aacaa2d0f62",
            "0x000000000000000000000000329d63f8850fa73e9d74443f091a8e2458521245",
            "0x000000000000000000000000b06a64615842cba9b3bdb7e6f726f3a5bd20dac2",
            "0x000000000000000000000000329d63f8850fa73e9d74443f091a8e2458521245"
          ],
          "data": "0x00000000000000000000000000000000000000000000000000000000000000010000000000000000000000000000000000000000000000000000000000000003",
          "blockHash": "0x28b934e04e8b88090ab3ffa8489add04ff4152cc407d84fa4be2c7f909ba343e",
          "blockNumber": "0x652d25",
          "transactionHash": "0x93f53b8feef0a56e18a166c49bc2fb95ff459c1d6f498895f76062356bc3d052",
          "transactionIndex": "0x48",
          "logIndex": "0x60",
          "removed": false
        },
        {
          "address": "0x49f53e41452c74589e85ca1677426ba426459e85",
          "topics": [
            "0xb3813568d9991fc951961fcb4c784893574240a28925604d09fc577c55bb7c32",
            "0x00000000000000000000000043ae63f8850fa73e9d74443f091a8e2458522356",
            "0x000000000000000000000000426f9a5f9ca50d42f63676a079e059f27dfea58b",
            "0x0000000000000000000000000000000000000000000000000000000000000000"
          ],
          "data": "0x0000000000000000000000000000000000000000000000000000000000000020000000000000000000000000000000000000000000000000000000000000034d0000000000000000000000000000000000000000000000000000000000000000000000000000000000000000000000000000000000000000000000000000000000000000001e848000618c9f780000000000000000000000000000000000000000000000000000000000000040000000000000000000000000b06a64615842cba9b3bdb7e6f726f3a5bd20dac2000000000000000000000000000000000000000000000000000000000000000100000000000000000000000000000000000000000000000000000000000000200000000000000000000000000000000000000000000000000000000000aa36a70000000000000000000000002369dff13b5f2778fe90e5cde5d40ccf7b72135e000000000000000000000000000000000000000000000000000000000000000000000000000000000000000000000000000000000000000000000000000001000000000000000000000000000000000000000000000000000000000000000140000000000000000000000000000000000000000000000000000000000000018000000000000000000000000000000000000000000000000000000000000002400000000000000000000000000000000000000000000000000000000000000260000000000000000000000000000000000000000000000000000000000000000100000000000000000000000000000000000000000000000000000000000000010000000000000000000000000000000000000000000000000000000000000001000000000000000000000000000000000000000000000000000000000000000300000000000000000000000000000000000000000000000000000000000000010000000000000000000000000000000000000000000000000000000000000020000000000000000000000000000000000000000000000000000000000000005168747470733a2f2f697066732e696f2f697066732f6261667962656962633573676f32706c6d6a6b7132747a6d68726e3534626b336372686e6332337a64326d73673465613761347078726b67666e612f0000000000000000000000000000000000000000000000000000000000000000000000000000000000000000000000000000000000000000000000000000000000000000000000000000000000000000000000000000000000000000000000000000",
          "blockHash": "0x28b934e04e8b88090ab3ffa8489add04ff4152cc407d84fa4be2c7f909ba343e",
          "blockNumber": "0x652d25",
          "transactionHash": "0x93f53b8feef0a56e18a166c49bc2fb95ff459c1d6f498895f76062356bc3d052",
          "transactionIndex": "0x48",
          "logIndex": "0x61",
          "removed": false
        },
        {
          "address": "0x329d63f8850fa73e9d74443f091a8e2458521245",
          "topics": [
            "0x40ed8708386718fe740cd30daf71eb9d77f79d96d5b741694b4c12899cf3faf4"
          ],
          "data": "0x000000000000000000000000426f9a5f9ca50d42f63676a079e059f27dfea58b0000000000000000000000000000000000000000000000000000000000000060000000000000000000000000b06a64615842cba9b3bdb7e6f726f3a5bd20dac2000000000000000000000000000000000000000000000000000000000000000100000000000000000000000000000000000000000000000000000000000000200000000000000000000000000000000000000000000000000000000000aa36a70000000000000000000000002369dff13b5f2778fe90e5cde5d40ccf7b72135e000000000000000000000000000000000000000000000000000000000000000000000000000000000000000000000000000000000000000000000000000001000000000000000000000000000000000000000000000000000000000000000140000000000000000000000000000000000000000000000000000000000000018000000000000000000000000000000000000000000000000000000000000002400000000000000000000000000000000000000000000000000000000000000260000000000000000000000000000000000000000000000000000000000000000100000000000000000000000000000000000000000000000000000000000000010000000000000000000000000000000000000000000000000000000000000001000000000000000000000000000000000000000000000000000000000000000300000000000000000000000000000000000000000000000000000000000000010000000000000000000000000000000000000000000000000000000000000020000000000000000000000000000000000000000000000000000000000000005168747470733a2f2f697066732e696f2f697066732f6261667962656962633573676f32706c6d6a6b7132747a6d68726e3534626b336372686e6332337a64326d73673465613761347078726b67666e612f00000000000000000000000000000000000000000000000000000000000000000000000000000000000000000000000000000000000000000000000000000000000000000000000000000000000000",
          "blockHash": "0x28b934e04e8b88090ab3ffa8489add04ff4152cc407d84fa4be2c7f909ba343e",
          "blockNumber": "0x652d25",
          "transactionHash": "0x93f53b8feef0a56e18a166c49bc2fb95ff459c1d6f498895f76062356bc3d052",
          "transactionIndex": "0x48",
          "logIndex": "0x62",
          "removed": false
        }
      ],
      "logsBloom": "0x00000000000000000400000000000000000000000000000000200000000000000000000000200000000000000000008000000000000000000000000040002000000001000000000000000002000000000000000000000000000000000000020000000001020000000000000810001800000000000020000000400000000008000000000000000100000000000000000000000000000020000000000800000000000001000000101000000000000000000008000000080000000000000000000000000000000000000000000400000000000000000008100000000000000020000000000000000000000000002000000000000000080000000000080000000000",
      "type": "0x2",
      "transactionHash": "0x93f53b8feef0a56e18a166c49bc2fb95ff459c1d6f498895f76062356bc3d052",
      "transactionIndex": "0x48",
      "blockHash": "0x28b934e04e8b88090ab3ffa8489add04ff4152cc407d84fa4be2c7f909ba343e",
      "blockNumber": "0x652d25",
      "gasUsed": "0x25078",
      "effectiveGasPrice": "0xff06dc306",
      "from": "0xb06a64615842cba9b3bdb7e6f726f3a5bd20dac2",
      "to": "0x329d63f8850fa73e9d74443f091a8e2458521245",
      "contractAddress": null
    },
    {
      "status": "0x1",
      "cumulativeGasUsed": "0x10ff9cf",
      "logs": [
        {
          "address": "0x2369dff13b5f2778fe90e5cde5d40ccf7b72135e",
          "topics": [
            "0x17307eab39ab6107e8899845ad3d59bd9653f200f220920489ca2b5937696c31",
            "0x000000000000000000000000b06a64615842cba9b3bdb7e6f726f3a5bd20dac2",
            "0x000000000000000000000000329d63f8850fa73e9d74443f091a8e2458521245"
          ],
          "data": "0x0000000000000000000000000000000000000000000000000000000000000000",
          "blockHash": "0x28b934e04e8b88090ab3ffa8489add04ff4152cc407d84fa4be2c7f909ba343e",
          "blockNumber": "0x652d25",
          "transactionHash": "0x56a6987e3eef450d8248f6ba76ba6ab5a73a80cf7885abc635654e472704b990",
          "transactionIndex": "0x49",
          "logIndex": "0x63",
          "removed": false
        }
      ],
      "logsBloom": "0x00000000000000000000000000000000000000000000000000000000000000000000000000200000000000000000000000000000000000000000000040000000000000000000000000000000000000000000000000000000000000000000000002000001000000000000000800000000000000000000000000400000000000000000000000000100000000000000000000000000000000000000000800000000000000000000100000000000000000000000000000000000000000000000000000000000000000000000000000000000000000000000100000000000000000000000200800000000000000000000000000000000000000000000000000000000",
      "type": "0x2",
      "transactionHash": "0x56a6987e3eef450d8248f6ba76ba6ab5a73a80cf7885abc635654e472704b990",
      "transactionIndex": "0x49",
      "blockHash": "0x28b934e04e8b88090ab3ffa8489add04ff4152cc407d84fa4be2c7f909ba343e",
      "blockNumber": "0x652d25",
      "gasUsed": "0x5edf",
      "effectiveGasPrice": "0xff06dc306",
      "from": "0xb06a64615842cba9b3bdb7e6f726f3a5bd20dac2",
      "to": "0x2369dff13b5f2778fe90e5cde5d40ccf7b72135e",
      "contractAddress": null
    }
  ],
  "libraries": [],
  "pending": [],
  "returns": {},
  "timestamp": 1725444439,
  "chain": 11155111,
  "commit": "d994cfe"
}