{
  "transactions": [
    {
      "hash": "0xfb1f1a45778234508068e15c2ab0f63c684b96a15c45dc027d622177f173c12e",
      "transactionType": "CALL",
      "contractName": null,
      "contractAddress": "0x3d7e741b5e806303adbe0706c827d3acf0696516",
      "function": "mint(uint256)",
      "arguments": [
        "3"
      ],
      "transaction": {
        "from": "0xb06a64615842cba9b3bdb7e6f726f3a5bd20dac2",
        "to": "0x3d7e741b5e806303adbe0706c827d3acf0696516",
        "gas": "0x2c55f",
        "value": "0x0",
        "input": "0xa0712d680000000000000000000000000000000000000000000000000000000000000003",
        "nonce": "0x16b",
        "chainId": "0xaa36a7"
      },
      "additionalContracts": [],
      "isFixedGasLimit": false
    },
    {
      "hash": "0x9f4f4b296d07e0e0b924a35e3b4dc14b1fd67e5879f270fb778f6a5bd757fd83",
      "transactionType": "CALL",
      "contractName": null,
      "contractAddress": "0x3d7e741b5e806303adbe0706c827d3acf0696516",
      "function": "setApprovalForAll(address,bool)",
      "arguments": [
        "0x329d63f8850fA73E9D74443f091A8E2458521245",
        "true"
      ],
      "transaction": {
        "from": "0xb06a64615842cba9b3bdb7e6f726f3a5bd20dac2",
        "to": "0x3d7e741b5e806303adbe0706c827d3acf0696516",
        "gas": "0x8dc6",
        "value": "0x0",
        "input": "0xa22cb465000000000000000000000000329d63f8850fa73e9d74443f091a8e24585212450000000000000000000000000000000000000000000000000000000000000001",
        "nonce": "0x16c",
        "chainId": "0xaa36a7"
      },
      "additionalContracts": [],
      "isFixedGasLimit": false
    },
    {
      "hash": "0x9824b8769d6aa7ec436e6a3d51518839cb00ab7371bc366093657588b6ba930c",
      "transactionType": "CALL",
      "contractName": null,
      "contractAddress": "0x329d63f8850fa73e9d74443f091a8e2458521245",
      "function": "crossTheThreshold((address[],uint256[][],uint256[][],address,uint64))",
      "arguments": [
        "([0x3d7E741B5E806303ADbE0706c827d3AcF0696516], [[396, 397, 398]], [[0, 0, 0]], 0xb06a64615842CbA9b3Bdb7e6F726F3a5BD20daC2, 2000000)"
      ],
      "transaction": {
        "from": "0xb06a64615842cba9b3bdb7e6f726f3a5bd20dac2",
        "to": "0x329d63f8850fa73e9d74443f091a8e2458521245",
        "gas": "0x2d92fa",
        "value": "0x0",
        "input": "0x297b412e000000000000000000000000000000000000000000000000000000000000002000000000000000000000000000000000000000000000000000000000000000a000000000000000000000000000000000000000000000000000000000000000e000000000000000000000000000000000000000000000000000000000000001a0000000000000000000000000b06a64615842cba9b3bdb7e6f726f3a5bd20dac200000000000000000000000000000000000000000000000000000000001e848000000000000000000000000000000000000000000000000000000000000000010000000000000000000000003d7e741b5e806303adbe0706c827d3acf0696516000000000000000000000000000000000000000000000000000000000000000100000000000000000000000000000000000000000000000000000000000000200000000000000000000000000000000000000000000000000000000000000003000000000000000000000000000000000000000000000000000000000000018c000000000000000000000000000000000000000000000000000000000000018d000000000000000000000000000000000000000000000000000000000000018e000000000000000000000000000000000000000000000000000000000000000100000000000000000000000000000000000000000000000000000000000000200000000000000000000000000000000000000000000000000000000000000003000000000000000000000000000000000000000000000000000000000000000000000000000000000000000000000000000000000000000000000000000000000000000000000000000000000000000000000000000000000000000000000000",
        "nonce": "0x16d",
        "chainId": "0xaa36a7"
      },
      "additionalContracts": [],
      "isFixedGasLimit": false
    },
    {
      "hash": "0x6385b34a8ae642f82146e9ad60736e22d69912176792a9ad3ee51d900b268c64",
      "transactionType": "CALL",
      "contractName": null,
      "contractAddress": "0x3d7e741b5e806303adbe0706c827d3acf0696516",
      "function": "setApprovalForAll(address,bool)",
      "arguments": [
        "0x329d63f8850fA73E9D74443f091A8E2458521245",
        "false"
      ],
      "transaction": {
        "from": "0xb06a64615842cba9b3bdb7e6f726f3a5bd20dac2",
        "to": "0x3d7e741b5e806303adbe0706c827d3acf0696516",
        "gas": "0x8a9f",
        "value": "0x0",
        "input": "0xa22cb465000000000000000000000000329d63f8850fa73e9d74443f091a8e24585212450000000000000000000000000000000000000000000000000000000000000000",
        "nonce": "0x16e",
        "chainId": "0xaa36a7"
      },
      "additionalContracts": [],
      "isFixedGasLimit": false
    }
  ],
  "receipts": [
    {
      "status": "0x1",
      "cumulativeGasUsed": "0x22532b",
      "logs": [
        {
          "address": "0x3d7e741b5e806303adbe0706c827d3acf0696516",
          "topics": [
            "0xddf252ad1be2c89b69c2b068fc378daa952ba7f163c4a11628f55a4df523b3ef",
            "0x0000000000000000000000000000000000000000000000000000000000000000",
            "0x000000000000000000000000b06a64615842cba9b3bdb7e6f726f3a5bd20dac2",
            "0x000000000000000000000000000000000000000000000000000000000000018c"
          ],
          "data": "0x",
          "blockHash": "0x3c5c4d83828a111a7463a8e7612edc7236cd8cdea16362e9015466ff0be94d82",
          "blockNumber": "0x64fbb0",
          "transactionHash": "0xfb1f1a45778234508068e15c2ab0f63c684b96a15c45dc027d622177f173c12e",
          "transactionIndex": "0xf",
          "logIndex": "0x19",
          "removed": false
        },
        {
          "address": "0x3d7e741b5e806303adbe0706c827d3acf0696516",
          "topics": [
            "0xddf252ad1be2c89b69c2b068fc378daa952ba7f163c4a11628f55a4df523b3ef",
            "0x0000000000000000000000000000000000000000000000000000000000000000",
            "0x000000000000000000000000b06a64615842cba9b3bdb7e6f726f3a5bd20dac2",
            "0x000000000000000000000000000000000000000000000000000000000000018d"
          ],
          "data": "0x",
          "blockHash": "0x3c5c4d83828a111a7463a8e7612edc7236cd8cdea16362e9015466ff0be94d82",
          "blockNumber": "0x64fbb0",
          "transactionHash": "0xfb1f1a45778234508068e15c2ab0f63c684b96a15c45dc027d622177f173c12e",
          "transactionIndex": "0xf",
          "logIndex": "0x1a",
          "removed": false
        },
        {
          "address": "0x3d7e741b5e806303adbe0706c827d3acf0696516",
          "topics": [
            "0xddf252ad1be2c89b69c2b068fc378daa952ba7f163c4a11628f55a4df523b3ef",
            "0x0000000000000000000000000000000000000000000000000000000000000000",
            "0x000000000000000000000000b06a64615842cba9b3bdb7e6f726f3a5bd20dac2",
            "0x000000000000000000000000000000000000000000000000000000000000018e"
          ],
          "data": "0x",
          "blockHash": "0x3c5c4d83828a111a7463a8e7612edc7236cd8cdea16362e9015466ff0be94d82",
          "blockNumber": "0x64fbb0",
          "transactionHash": "0xfb1f1a45778234508068e15c2ab0f63c684b96a15c45dc027d622177f173c12e",
          "transactionIndex": "0xf",
          "logIndex": "0x1b",
          "removed": false
        }
      ],
      "logsBloom": "0x02000000000000000000000000000000000000000200000000000000000000000000000000200000001000000000000000000000000000000000000040000040000000000000000000000008000000000000000000000000000000000000000000000000220000000000000000000800000000080000000040000010000000000000000000000000000000000000000000000000000000000000000000000000000000000000000000008000000000000000000000000000000004000000000040000002000000000000000000000000000000000002100000000000000020000000080000000000000000000000000000000000000000000000000000000000",
      "type": "0x0",
      "transactionHash": "0xfb1f1a45778234508068e15c2ab0f63c684b96a15c45dc027d622177f173c12e",
      "transactionIndex": "0xf",
      "blockHash": "0x3c5c4d83828a111a7463a8e7612edc7236cd8cdea16362e9015466ff0be94d82",
      "blockNumber": "0x64fbb0",
      "gasUsed": "0x1e50b",
      "effectiveGasPrice": "0x9b304baa7",
      "from": "0xb06a64615842cba9b3bdb7e6f726f3a5bd20dac2",
      "to": "0x3d7e741b5e806303adbe0706c827d3acf0696516",
      "contractAddress": null
    },
    {
      "status": "0x1",
      "cumulativeGasUsed": "0x22b9d0",
      "logs": [
        {
          "address": "0x3d7e741b5e806303adbe0706c827d3acf0696516",
          "topics": [
            "0x17307eab39ab6107e8899845ad3d59bd9653f200f220920489ca2b5937696c31",
            "0x000000000000000000000000b06a64615842cba9b3bdb7e6f726f3a5bd20dac2",
            "0x000000000000000000000000329d63f8850fa73e9d74443f091a8e2458521245"
          ],
          "data": "0x0000000000000000000000000000000000000000000000000000000000000001",
          "blockHash": "0x3c5c4d83828a111a7463a8e7612edc7236cd8cdea16362e9015466ff0be94d82",
          "blockNumber": "0x64fbb0",
          "transactionHash": "0x9f4f4b296d07e0e0b924a35e3b4dc14b1fd67e5879f270fb778f6a5bd757fd83",
          "transactionIndex": "0x10",
          "logIndex": "0x1c",
          "removed": false
        }
      ],
      "logsBloom": "0x00000000000000000000000000000000000000000000000000000000000000000000000000200000000000000000000000000000000000000000000040000040000000000000000000000000000000000000000000000000000000000000000002000001000000000000000800000000000000000000000040000000000000000000000000000000000000000000000000000000000000000000000800000000000000000000000000000000000000000000000000000000000004000000000000000000000000000000000000000000000000000000100000000000000000000000200800000000000000000000000000000000000000000000000000000000",
      "type": "0x0",
      "transactionHash": "0x9f4f4b296d07e0e0b924a35e3b4dc14b1fd67e5879f270fb778f6a5bd757fd83",
      "transactionIndex": "0x10",
      "blockHash": "0x3c5c4d83828a111a7463a8e7612edc7236cd8cdea16362e9015466ff0be94d82",
      "blockNumber": "0x64fbb0",
      "gasUsed": "0x66a5",
      "effectiveGasPrice": "0x9b304baa7",
      "from": "0xb06a64615842cba9b3bdb7e6f726f3a5bd20dac2",
      "to": "0x3d7e741b5e806303adbe0706c827d3acf0696516",
      "contractAddress": null
    },
    {
      "status": "0x1",
      "cumulativeGasUsed": "0x25fd72",
      "logs": [
        {
          "address": "0x3d7e741b5e806303adbe0706c827d3acf0696516",
          "topics": [
            "0x8c5be1e5ebec7d5bd14f71427d1e84f3dd0314c0f7b2291e5b200ac8c7c3b925",
            "0x000000000000000000000000b06a64615842cba9b3bdb7e6f726f3a5bd20dac2",
            "0x0000000000000000000000000000000000000000000000000000000000000000",
            "0x000000000000000000000000000000000000000000000000000000000000018c"
          ],
          "data": "0x",
          "blockHash": "0x3c5c4d83828a111a7463a8e7612edc7236cd8cdea16362e9015466ff0be94d82",
          "blockNumber": "0x64fbb0",
          "transactionHash": "0x9824b8769d6aa7ec436e6a3d51518839cb00ab7371bc366093657588b6ba930c",
          "transactionIndex": "0x11",
          "logIndex": "0x1d",
          "removed": false
        },
        {
          "address": "0x3d7e741b5e806303adbe0706c827d3acf0696516",
          "topics": [
            "0xddf252ad1be2c89b69c2b068fc378daa952ba7f163c4a11628f55a4df523b3ef",
            "0x000000000000000000000000b06a64615842cba9b3bdb7e6f726f3a5bd20dac2",
            "0x000000000000000000000000329d63f8850fa73e9d74443f091a8e2458521245",
            "0x000000000000000000000000000000000000000000000000000000000000018c"
          ],
          "data": "0x",
          "blockHash": "0x3c5c4d83828a111a7463a8e7612edc7236cd8cdea16362e9015466ff0be94d82",
          "blockNumber": "0x64fbb0",
          "transactionHash": "0x9824b8769d6aa7ec436e6a3d51518839cb00ab7371bc366093657588b6ba930c",
          "transactionIndex": "0x11",
          "logIndex": "0x1e",
          "removed": false
        },
        {
          "address": "0x3d7e741b5e806303adbe0706c827d3acf0696516",
          "topics": [
            "0x8c5be1e5ebec7d5bd14f71427d1e84f3dd0314c0f7b2291e5b200ac8c7c3b925",
            "0x000000000000000000000000b06a64615842cba9b3bdb7e6f726f3a5bd20dac2",
            "0x0000000000000000000000000000000000000000000000000000000000000000",
            "0x000000000000000000000000000000000000000000000000000000000000018d"
          ],
          "data": "0x",
          "blockHash": "0x3c5c4d83828a111a7463a8e7612edc7236cd8cdea16362e9015466ff0be94d82",
          "blockNumber": "0x64fbb0",
          "transactionHash": "0x9824b8769d6aa7ec436e6a3d51518839cb00ab7371bc366093657588b6ba930c",
          "transactionIndex": "0x11",
          "logIndex": "0x1f",
          "removed": false
        },
        {
          "address": "0x3d7e741b5e806303adbe0706c827d3acf0696516",
          "topics": [
            "0xddf252ad1be2c89b69c2b068fc378daa952ba7f163c4a11628f55a4df523b3ef",
            "0x000000000000000000000000b06a64615842cba9b3bdb7e6f726f3a5bd20dac2",
            "0x000000000000000000000000329d63f8850fa73e9d74443f091a8e2458521245",
            "0x000000000000000000000000000000000000000000000000000000000000018d"
          ],
          "data": "0x",
          "blockHash": "0x3c5c4d83828a111a7463a8e7612edc7236cd8cdea16362e9015466ff0be94d82",
          "blockNumber": "0x64fbb0",
          "transactionHash": "0x9824b8769d6aa7ec436e6a3d51518839cb00ab7371bc366093657588b6ba930c",
          "transactionIndex": "0x11",
          "logIndex": "0x20",
          "removed": false
        },
        {
          "address": "0x3d7e741b5e806303adbe0706c827d3acf0696516",
          "topics": [
            "0x8c5be1e5ebec7d5bd14f71427d1e84f3dd0314c0f7b2291e5b200ac8c7c3b925",
            "0x000000000000000000000000b06a64615842cba9b3bdb7e6f726f3a5bd20dac2",
            "0x0000000000000000000000000000000000000000000000000000000000000000",
            "0x000000000000000000000000000000000000000000000000000000000000018e"
          ],
          "data": "0x",
          "blockHash": "0x3c5c4d83828a111a7463a8e7612edc7236cd8cdea16362e9015466ff0be94d82",
          "blockNumber": "0x64fbb0",
          "transactionHash": "0x9824b8769d6aa7ec436e6a3d51518839cb00ab7371bc366093657588b6ba930c",
          "transactionIndex": "0x11",
          "logIndex": "0x21",
          "removed": false
        },
        {
          "address": "0x3d7e741b5e806303adbe0706c827d3acf0696516",
          "topics": [
            "0xddf252ad1be2c89b69c2b068fc378daa952ba7f163c4a11628f55a4df523b3ef",
            "0x000000000000000000000000b06a64615842cba9b3bdb7e6f726f3a5bd20dac2",
            "0x000000000000000000000000329d63f8850fa73e9d74443f091a8e2458521245",
            "0x000000000000000000000000000000000000000000000000000000000000018e"
          ],
          "data": "0x",
          "blockHash": "0x3c5c4d83828a111a7463a8e7612edc7236cd8cdea16362e9015466ff0be94d82",
          "blockNumber": "0x64fbb0",
          "transactionHash": "0x9824b8769d6aa7ec436e6a3d51518839cb00ab7371bc366093657588b6ba930c",
          "transactionIndex": "0x11",
          "logIndex": "0x22",
          "removed": false
        },
        {
          "address": "0x49f53e41452c74589e85ca1677426ba426459e85",
          "topics": [
            "0xb3813568d9991fc951961fcb4c784893574240a28925604d09fc577c55bb7c32",
            "0x00000000000000000000000043ae63f8850fa73e9d74443f091a8e2458522356",
            "0x000000000000000000000000426f9a5f9ca50d42f63676a079e059f27dfea58b",
            "0x0000000000000000000000000000000000000000000000000000000000000000"
          ],
          "data": "0x000000000000000000000000000000000000000000000000000000000000002000000000000000000000000000000000000000000000000000000000000004ed0000000000000000000000000000000000000000000000000000000000000000000000000000000000000000000000000000000000000000000000000000000000000000001e848000618c9f780000000000000000000000000000000000000000000000000000000000000040000000000000000000000000b06a64615842cba9b3bdb7e6f726f3a5bd20dac2000000000000000000000000000000000000000000000000000000000000000100000000000000000000000000000000000000000000000000000000000000200000000000000000000000000000000000000000000000000000000000aa36a70000000000000000000000003d7e741b5e806303adbe0706c827d3acf069651600000000000000000000000000000000000000000000000000000000000001f400000000000000000000000000000000000000000000000000000000000001000000000000000000000000000000000000000000000000000000000000000180000000000000000000000000000000000000000000000000000000000000020000000000000000000000000000000000000000000000000000000000000003a000000000000000000000000000000000000000000000000000000000000003e00000000000000000000000000000000000000000000000000000000000000003000000000000000000000000000000000000000000000000000000000000018c000000000000000000000000000000000000000000000000000000000000018d000000000000000000000000000000000000000000000000000000000000018e00000000000000000000000000000000000000000000000000000000000000030000000000000000000000000000000000000000000000000000000000000000000000000000000000000000000000000000000000000000000000000000000000000000000000000000000000000000000000000000000000000000000000000000000000000000000000000000000000000000000000000000000000000003000000000000000000000000000000000000000000000000000000000000006000000000000000000000000000000000000000000000000000000000000000c00000000000000000000000000000000000000000000000000000000000000120000000000000000000000000000000000000000000000000000000000000002368747470733a2f2f6170692e636f6f6c636174736e66742e636f6d2f6361742f3339360000000000000000000000000000000000000000000000000000000000000000000000000000000000000000000000000000000000000000000000002368747470733a2f2f6170692e636f6f6c636174736e66742e636f6d2f6361742f3339370000000000000000000000000000000000000000000000000000000000000000000000000000000000000000000000000000000000000000000000002368747470733a2f2f6170692e636f6f6c636174736e66742e636f6d2f6361742f3339380000000000000000000000000000000000000000000000000000000000000000000000000000000000000000000000000000000000000000000000000d436f6f6c2043617473204e465400000000000000000000000000000000000000000000000000000000000000000000000000000000000000000000000000000d436f6f6c2043617473204e46540000000000000000000000000000000000000000000000000000000000000000000000000000",
          "blockHash": "0x3c5c4d83828a111a7463a8e7612edc7236cd8cdea16362e9015466ff0be94d82",
          "blockNumber": "0x64fbb0",
          "transactionHash": "0x9824b8769d6aa7ec436e6a3d51518839cb00ab7371bc366093657588b6ba930c",
          "transactionIndex": "0x11",
          "logIndex": "0x23",
          "removed": false
        },
        {
          "address": "0x329d63f8850fa73e9d74443f091a8e2458521245",
          "topics": [
            "0x40ed8708386718fe740cd30daf71eb9d77f79d96d5b741694b4c12899cf3faf4"
          ],
          "data": "0x000000000000000000000000426f9a5f9ca50d42f63676a079e059f27dfea58b0000000000000000000000000000000000000000000000000000000000000060000000000000000000000000b06a64615842cba9b3bdb7e6f726f3a5bd20dac2000000000000000000000000000000000000000000000000000000000000000100000000000000000000000000000000000000000000000000000000000000200000000000000000000000000000000000000000000000000000000000aa36a70000000000000000000000003d7e741b5e806303adbe0706c827d3acf069651600000000000000000000000000000000000000000000000000000000000001f400000000000000000000000000000000000000000000000000000000000001000000000000000000000000000000000000000000000000000000000000000180000000000000000000000000000000000000000000000000000000000000020000000000000000000000000000000000000000000000000000000000000003a000000000000000000000000000000000000000000000000000000000000003e00000000000000000000000000000000000000000000000000000000000000003000000000000000000000000000000000000000000000000000000000000018c000000000000000000000000000000000000000000000000000000000000018d000000000000000000000000000000000000000000000000000000000000018e00000000000000000000000000000000000000000000000000000000000000030000000000000000000000000000000000000000000000000000000000000000000000000000000000000000000000000000000000000000000000000000000000000000000000000000000000000000000000000000000000000000000000000000000000000000000000000000000000000000000000000000000000000003000000000000000000000000000000000000000000000000000000000000006000000000000000000000000000000000000000000000000000000000000000c00000000000000000000000000000000000000000000000000000000000000120000000000000000000000000000000000000000000000000000000000000002368747470733a2f2f6170692e636f6f6c636174736e66742e636f6d2f6361742f3339360000000000000000000000000000000000000000000000000000000000000000000000000000000000000000000000000000000000000000000000002368747470733a2f2f6170692e636f6f6c636174736e66742e636f6d2f6361742f3339370000000000000000000000000000000000000000000000000000000000000000000000000000000000000000000000000000000000000000000000002368747470733a2f2f6170692e636f6f6c636174736e66742e636f6d2f6361742f3339380000000000000000000000000000000000000000000000000000000000000000000000000000000000000000000000000000000000000000000000000d436f6f6c2043617473204e465400000000000000000000000000000000000000000000000000000000000000000000000000000000000000000000000000000d436f6f6c2043617473204e465400000000000000000000000000000000000000",
          "blockHash": "0x3c5c4d83828a111a7463a8e7612edc7236cd8cdea16362e9015466ff0be94d82",
          "blockNumber": "0x64fbb0",
          "transactionHash": "0x9824b8769d6aa7ec436e6a3d51518839cb00ab7371bc366093657588b6ba930c",
          "transactionIndex": "0x11",
          "logIndex": "0x24",
          "removed": false
        }
      ],
      "logsBloom": "0x0200000000000000040000000000000000000000020000000020000000000000000000000020000000100000000000800000000000000000000000004020004000000100000000000000000a000000000000000000000000000000000000020000000001220000000000000810001800000000080020000040000010000008000000000000000000000000000000000000000000000020000000000800000000020001000000001000008000000000000008000000080000000004000000000040000002000000000000000400000000000000000002100000000000000020000010080000000000000000002000000000000000080000000000000000000000",
      "type": "0x0",
      "transactionHash": "0x9824b8769d6aa7ec436e6a3d51518839cb00ab7371bc366093657588b6ba930c",
      "transactionIndex": "0x11",
      "blockHash": "0x3c5c4d83828a111a7463a8e7612edc7236cd8cdea16362e9015466ff0be94d82",
      "blockNumber": "0x64fbb0",
      "gasUsed": "0x343a2",
      "effectiveGasPrice": "0x9b304baa7",
      "from": "0xb06a64615842cba9b3bdb7e6f726f3a5bd20dac2",
      "to": "0x329d63f8850fa73e9d74443f091a8e2458521245",
      "contractAddress": null
    },
    {
      "status": "0x1",
      "cumulativeGasUsed": "0x265c3b",
      "logs": [
        {
          "address": "0x3d7e741b5e806303adbe0706c827d3acf0696516",
          "topics": [
            "0x17307eab39ab6107e8899845ad3d59bd9653f200f220920489ca2b5937696c31",
            "0x000000000000000000000000b06a64615842cba9b3bdb7e6f726f3a5bd20dac2",
            "0x000000000000000000000000329d63f8850fa73e9d74443f091a8e2458521245"
          ],
          "data": "0x0000000000000000000000000000000000000000000000000000000000000000",
          "blockHash": "0x3c5c4d83828a111a7463a8e7612edc7236cd8cdea16362e9015466ff0be94d82",
          "blockNumber": "0x64fbb0",
          "transactionHash": "0x6385b34a8ae642f82146e9ad60736e22d69912176792a9ad3ee51d900b268c64",
          "transactionIndex": "0x12",
          "logIndex": "0x25",
          "removed": false
        }
      ],
      "logsBloom": "0x00000000000000000000000000000000000000000000000000000000000000000000000000200000000000000000000000000000000000000000000040000040000000000000000000000000000000000000000000000000000000000000000002000001000000000000000800000000000000000000000040000000000000000000000000000000000000000000000000000000000000000000000800000000000000000000000000000000000000000000000000000000000004000000000000000000000000000000000000000000000000000000100000000000000000000000200800000000000000000000000000000000000000000000000000000000",
      "type": "0x0",
      "transactionHash": "0x6385b34a8ae642f82146e9ad60736e22d69912176792a9ad3ee51d900b268c64",
      "transactionIndex": "0x12",
      "blockHash": "0x3c5c4d83828a111a7463a8e7612edc7236cd8cdea16362e9015466ff0be94d82",
      "blockNumber": "0x64fbb0",
      "gasUsed": "0x5ec9",
      "effectiveGasPrice": "0x9b304baa7",
      "from": "0xb06a64615842cba9b3bdb7e6f726f3a5bd20dac2",
      "to": "0x3d7e741b5e806303adbe0706c827d3acf0696516",
      "contractAddress": null
    }
  ],
  "libraries": [],
  "pending": [],
  "returns": {},
  "timestamp": 1725269294,
  "chain": 11155111,
  "commit": "b0d9d8a"
}